{
  "_format": "hh-sol-artifact-1",
  "contractName": "MyBlog",
  "sourceName": "contracts/MyBlog.sol",
  "abi": [
    {
      "inputs": [
        {
          "internalType": "uint256",
          "name": "_fee",
          "type": "uint256"
        },
        {
          "internalType": "uint256",
          "name": "_discountRate",
          "type": "uint256"
        }
      ],
      "stateMutability": "nonpayable",
      "type": "constructor"
    },
    {
      "inputs": [],
      "name": "AlreadyMember",
      "type": "error"
    },
    {
      "inputs": [],
      "name": "InsufficientAmount",
      "type": "error"
    },
    {
      "inputs": [],
      "name": "InvalidDiscountRate",
      "type": "error"
    },
    {
      "anonymous": false,
      "inputs": [
        {
          "indexed": false,
          "internalType": "uint256",
          "name": "id",
          "type": "uint256"
        },
        {
          "indexed": false,
          "internalType": "string",
          "name": "title",
          "type": "string"
        },
        {
          "indexed": false,
          "internalType": "string",
          "name": "postOverview",
          "type": "string"
        },
        {
          "indexed": false,
          "internalType": "string",
          "name": "coverImageURI",
          "type": "string"
        },
        {
          "indexed": false,
          "internalType": "uint256",
          "name": "readTime",
          "type": "uint256"
        },
        {
          "indexed": false,
          "internalType": "string",
          "name": "contentURI",
          "type": "string"
        },
        {
          "indexed": false,
          "internalType": "uint256",
          "name": "lastUpdatedAt",
          "type": "uint256"
        },
        {
          "indexed": false,
          "internalType": "enum MyBlog.PostType",
          "name": "postType",
          "type": "uint8"
        }
      ],
      "name": "PostCreated",
      "type": "event"
    },
    {
      "anonymous": false,
      "inputs": [
        {
          "indexed": false,
          "internalType": "uint256",
          "name": "id",
          "type": "uint256"
        },
        {
          "indexed": false,
          "internalType": "string",
          "name": "title",
          "type": "string"
        },
        {
          "indexed": false,
          "internalType": "string",
          "name": "postOverview",
          "type": "string"
        },
        {
          "indexed": false,
          "internalType": "string",
          "name": "coverImageURI",
          "type": "string"
        },
        {
          "indexed": false,
          "internalType": "string",
          "name": "contentURI",
          "type": "string"
        },
        {
          "indexed": false,
          "internalType": "uint256",
          "name": "lastUpdatedAt",
          "type": "uint256"
        }
      ],
      "name": "PostUpdated",
      "type": "event"
    },
    {
      "inputs": [
        {
          "internalType": "enum MyBlog.SubscriptionType",
          "name": "_memberType",
          "type": "uint8"
        }
      ],
      "name": "becomeMember",
      "outputs": [],
      "stateMutability": "payable",
      "type": "function"
    },
    {
      "inputs": [
        {
          "internalType": "string",
          "name": "_title",
          "type": "string"
        },
        {
          "internalType": "string",
          "name": "_postOverview",
          "type": "string"
        },
        {
          "internalType": "string",
          "name": "_coverImageURI",
          "type": "string"
        },
        {
          "internalType": "uint256",
          "name": "_readTime",
          "type": "uint256"
        },
        {
          "internalType": "string",
          "name": "_contentURI",
          "type": "string"
        },
        {
          "internalType": "enum MyBlog.PostType",
          "name": "_type",
          "type": "uint8"
        }
      ],
      "name": "createPost",
      "outputs": [],
      "stateMutability": "payable",
      "type": "function"
    },
    {
      "inputs": [],
      "name": "getAllPosts",
      "outputs": [
        {
          "components": [
            {
              "internalType": "uint256",
              "name": "id",
              "type": "uint256"
            },
            {
              "internalType": "string",
              "name": "title",
              "type": "string"
            },
            {
              "internalType": "string",
              "name": "postOverview",
              "type": "string"
            },
            {
              "internalType": "string",
              "name": "coverImageURI",
              "type": "string"
            },
            {
              "internalType": "uint256",
              "name": "readTime",
              "type": "uint256"
            },
            {
              "internalType": "string",
              "name": "contentURI",
              "type": "string"
            },
            {
              "internalType": "uint256",
              "name": "lastUpdatedAt",
              "type": "uint256"
            },
            {
              "internalType": "enum MyBlog.PostType",
              "name": "postType",
              "type": "uint8"
            }
          ],
          "internalType": "struct MyBlog.Post[]",
          "name": "",
          "type": "tuple[]"
        }
      ],
      "stateMutability": "view",
      "type": "function"
    },
    {
      "inputs": [
        {
          "internalType": "address",
          "name": "_user",
          "type": "address"
        }
      ],
      "name": "getMemberInfo",
      "outputs": [
        {
          "components": [
            {
              "internalType": "uint256",
              "name": "subscribedUntil",
              "type": "uint256"
            },
            {
              "internalType": "enum MyBlog.SubscriptionType",
              "name": "memberType",
              "type": "uint8"
            }
          ],
          "internalType": "struct MyBlog.Member",
          "name": "",
          "type": "tuple"
        }
      ],
      "stateMutability": "view",
      "type": "function"
    },
    {
      "inputs": [
        {
          "internalType": "address",
          "name": "_user",
          "type": "address"
        }
      ],
      "name": "isMember",
      "outputs": [
        {
          "internalType": "bool",
          "name": "",
          "type": "bool"
        }
      ],
      "stateMutability": "view",
      "type": "function"
    },
    {
      "inputs": [],
      "name": "monthlyMembershipFee",
      "outputs": [
        {
          "internalType": "uint256",
          "name": "",
          "type": "uint256"
        }
      ],
      "stateMutability": "view",
      "type": "function"
    },
    {
      "inputs": [],
      "name": "owner",
      "outputs": [
        {
          "internalType": "address",
          "name": "",
          "type": "address"
        }
      ],
      "stateMutability": "view",
      "type": "function"
    },
    {
      "inputs": [
        {
          "internalType": "uint256",
          "name": "",
          "type": "uint256"
        }
      ],
      "name": "posts",
      "outputs": [
        {
          "internalType": "uint256",
          "name": "id",
          "type": "uint256"
        },
        {
          "internalType": "string",
          "name": "title",
          "type": "string"
        },
        {
          "internalType": "string",
          "name": "postOverview",
          "type": "string"
        },
        {
          "internalType": "string",
          "name": "coverImageURI",
          "type": "string"
        },
        {
          "internalType": "uint256",
          "name": "readTime",
          "type": "uint256"
        },
        {
          "internalType": "string",
          "name": "contentURI",
          "type": "string"
        },
        {
          "internalType": "uint256",
          "name": "lastUpdatedAt",
          "type": "uint256"
        },
        {
          "internalType": "enum MyBlog.PostType",
          "name": "postType",
          "type": "uint8"
        }
      ],
      "stateMutability": "view",
      "type": "function"
    },
    {
      "inputs": [
        {
          "internalType": "uint256",
          "name": "_newFee",
          "type": "uint256"
        }
      ],
      "name": "setMonthlyMembershipFee",
      "outputs": [],
      "stateMutability": "payable",
      "type": "function"
    },
    {
      "inputs": [
        {
          "internalType": "uint256",
          "name": "_newRate",
          "type": "uint256"
        }
      ],
      "name": "setYearlyDiscountRate",
      "outputs": [],
      "stateMutability": "payable",
      "type": "function"
    },
    {
      "inputs": [
        {
          "internalType": "uint256",
          "name": "_postId",
          "type": "uint256"
        },
        {
          "internalType": "string",
          "name": "_newTitle",
          "type": "string"
        },
        {
          "internalType": "string",
          "name": "_newPostOverview",
          "type": "string"
        },
        {
          "internalType": "string",
          "name": "_newCoverImageURI",
          "type": "string"
        },
        {
          "internalType": "uint256",
          "name": "_newReadTime",
          "type": "uint256"
        },
        {
          "internalType": "string",
          "name": "_newContentURI",
          "type": "string"
        }
      ],
      "name": "updatePost",
      "outputs": [],
      "stateMutability": "payable",
      "type": "function"
    },
    {
      "inputs": [],
      "name": "withdrawBalance",
      "outputs": [],
      "stateMutability": "payable",
      "type": "function"
    },
    {
      "inputs": [],
      "name": "yearlyDiscountRate",
      "outputs": [
        {
          "internalType": "uint256",
          "name": "",
          "type": "uint256"
        }
      ],
      "stateMutability": "view",
      "type": "function"
    }
  ],
  "bytecode": "0x60806040523480156200001157600080fd5b5060405162002684380380620026848339818101604052810190620000379190620000e0565b605a81111562000073576040517f2977522e00000000000000000000000000000000000000000000000000000000815260040160405180910390fd5b336000806101000a81548173ffffffffffffffffffffffffffffffffffffffff021916908373ffffffffffffffffffffffffffffffffffffffff1602179055508160018190555080600281905550505062000150565b600081519050620000da8162000136565b92915050565b60008060408385031215620000fa57620000f962000131565b5b60006200010a85828601620000c9565b92505060206200011d85828601620000c9565b9150509250929050565b6000819050919050565b600080fd5b620001418162000127565b81146200014d57600080fd5b50565b61252480620001606000396000f3fe6080604052600436106100c25760003560e01c80635f1231ea1161007f5780638da5cb5b116100595780638da5cb5b146102185780638ffbbb61146102435780639fb399991461025f578063a230c5241461028a576100c2565b80635f1231ea146101a65780635fd8c710146101e357806379933928146101ed576100c2565b80630b1e7f83146100c7578063305611001461010b57806333b5f99514610136578063480851d5146101525780634e0fb1461461016e5780634e988c031461018a575b600080fd5b3480156100d357600080fd5b506100ee60048036038101906100e99190611a99565b6102c7565b604051610102989796959493929190612053565b60405180910390f35b34801561011757600080fd5b5061012061054c565b60405161012d9190611e99565b60405180910390f35b610150600480360381019061014b919061195c565b61084d565b005b61016c60048036038101906101679190611989565b610b03565b005b61018860048036038101906101839190611ac6565b610e40565b005b6101a4600480360381019061019f9190611a99565b611427565b005b3480156101b257600080fd5b506101cd60048036038101906101c8919061192f565b6114bf565b6040516101da9190611ef6565b60405180910390f35b6101eb61155d565b005b3480156101f957600080fd5b50610202611654565b60405161020f9190611f11565b60405180910390f35b34801561022457600080fd5b5061022d61165a565b60405161023a9190611e7e565b60405180910390f35b61025d60048036038101906102589190611a99565b61167e565b005b34801561026b57600080fd5b50610274611751565b6040516102819190611f11565b60405180910390f35b34801561029657600080fd5b506102b160048036038101906102ac919061192f565b611757565b6040516102be9190611ebb565b60405180910390f35b600481815481106102d757600080fd5b906000526020600020906008020160009150905080600001549080600101805461030090612308565b80601f016020809104026020016040519081016040528092919081815260200182805461032c90612308565b80156103795780601f1061034e57610100808354040283529160200191610379565b820191906000526020600020905b81548152906001019060200180831161035c57829003601f168201915b50505050509080600201805461038e90612308565b80601f01602080910402602001604051908101604052809291908181526020018280546103ba90612308565b80156104075780601f106103dc57610100808354040283529160200191610407565b820191906000526020600020905b8154815290600101906020018083116103ea57829003601f168201915b50505050509080600301805461041c90612308565b80601f016020809104026020016040519081016040528092919081815260200182805461044890612308565b80156104955780601f1061046a57610100808354040283529160200191610495565b820191906000526020600020905b81548152906001019060200180831161047857829003601f168201915b5050505050908060040154908060050180546104b090612308565b80601f01602080910402602001604051908101604052809291908181526020018280546104dc90612308565b80156105295780601f106104fe57610100808354040283529160200191610529565b820191906000526020600020905b81548152906001019060200180831161050c57829003601f168201915b5050505050908060060154908060070160009054906101000a900460ff16905088565b60606004805480602002602001604051908101604052809291908181526020016000905b82821015610844578382906000526020600020906008020160405180610100016040529081600082015481526020016001820180546105ae90612308565b80601f01602080910402602001604051908101604052809291908181526020018280546105da90612308565b80156106275780601f106105fc57610100808354040283529160200191610627565b820191906000526020600020905b81548152906001019060200180831161060a57829003601f168201915b5050505050815260200160028201805461064090612308565b80601f016020809104026020016040519081016040528092919081815260200182805461066c90612308565b80156106b95780601f1061068e576101008083540402835291602001916106b9565b820191906000526020600020905b81548152906001019060200180831161069c57829003601f168201915b505050505081526020016003820180546106d290612308565b80601f01602080910402602001604051908101604052809291908181526020018280546106fe90612308565b801561074b5780601f106107205761010080835404028352916020019161074b565b820191906000526020600020905b81548152906001019060200180831161072e57829003601f168201915b505050505081526020016004820154815260200160058201805461076e90612308565b80601f016020809104026020016040519081016040528092919081815260200182805461079a90612308565b80156107e75780601f106107bc576101008083540402835291602001916107e7565b820191906000526020600020905b8154815290600101906020018083116107ca57829003601f168201915b50505050508152602001600682015481526020016007820160009054906101000a900460ff16600181111561081f5761081e612398565b5b600181111561083157610830612398565b5b8152505081526020019060010190610570565b50505050905090565b61085633611757565b1561088d576040517f810074be00000000000000000000000000000000000000000000000000000000815260040160405180910390fd5b600060018111156108a1576108a0612398565b5b8160018111156108b4576108b3612398565b5b14156109b3576001543410156108f6576040517f5945ea5600000000000000000000000000000000000000000000000000000000815260040160405180910390fd5b600062278d00426109079190612153565b905060405180604001604052808281526020016000600181111561092e5761092d612398565b5b815250600360003373ffffffffffffffffffffffffffffffffffffffff1673ffffffffffffffffffffffffffffffffffffffff1681526020019081526020016000206000820151816000015560208201518160010160006101000a81548160ff021916908360018111156109a5576109a4612398565b5b021790555090505050610b00565b6001808111156109c6576109c5612398565b5b8160018111156109d9576109d8612398565b5b1415610aff5760006064600254600c6001546109f591906121da565b6109ff91906121da565b610a0991906121a9565b905080341015610a45576040517f5945ea5600000000000000000000000000000000000000000000000000000000815260040160405180910390fd5b60006301e1338042610a579190612153565b90506040518060400160405280828152602001600180811115610a7d57610a7c612398565b5b815250600360003373ffffffffffffffffffffffffffffffffffffffff1673ffffffffffffffffffffffffffffffffffffffff1681526020019081526020016000206000820151816000015560208201518160010160006101000a81548160ff02191690836001811115610af457610af3612398565b5b021790555090505050505b5b50565b60008054906101000a900473ffffffffffffffffffffffffffffffffffffffff1673ffffffffffffffffffffffffffffffffffffffff163373ffffffffffffffffffffffffffffffffffffffff1614610b91576040517f08c379a0000000000000000000000000000000000000000000000000000000008152600401610b8890611ed6565b60405180910390fd5b6000600480549050905060046040518061010001604052808381526020018d8d8080601f016020809104026020016040519081016040528093929190818152602001838380828437600081840152601f19601f8201169050808301925050505050505081526020018b8b8080601f016020809104026020016040519081016040528093929190818152602001838380828437600081840152601f19601f82011690508083019250505050505050815260200189898080601f016020809104026020016040519081016040528093929190818152602001838380828437600081840152601f19601f82011690508083019250505050505050815260200187815260200186868080601f016020809104026020016040519081016040528093929190818152602001838380828437600081840152601f19601f820116905080830192505050505050508152602001428152602001846001811115610cf657610cf5612398565b5b8152509080600181540180825580915050600190039060005260206000209060080201600090919091909150600082015181600001556020820151816001019080519060200190610d489291906117b6565b506040820151816002019080519060200190610d659291906117b6565b506060820151816003019080519060200190610d829291906117b6565b506080820151816004015560a0820151816005019080519060200190610da99291906117b6565b5060c0820151816006015560e08201518160070160006101000a81548160ff02191690836001811115610ddf57610dde612398565b5b021790555050507f0350de3ba747fb3b372ac1e95ab1d2c64f67290ef02de69a5d20fdcc0dd2005d818c8c8c8c8c8c8c8c8c428d604051610e2b9c9b9a99989796959493929190611fb1565b60405180910390a15050505050505050505050565b60008054906101000a900473ffffffffffffffffffffffffffffffffffffffff1673ffffffffffffffffffffffffffffffffffffffff163373ffffffffffffffffffffffffffffffffffffffff1614610ece576040517f08c379a0000000000000000000000000000000000000000000000000000000008152600401610ec590611ed6565b60405180910390fd5b600060048b81548110610ee457610ee36123f6565b5b90600052602060002090600802016040518061010001604052908160008201548152602001600182018054610f1890612308565b80601f0160208091040260200160405190810160405280929190818152602001828054610f4490612308565b8015610f915780601f10610f6657610100808354040283529160200191610f91565b820191906000526020600020905b815481529060010190602001808311610f7457829003601f168201915b50505050508152602001600282018054610faa90612308565b80601f0160208091040260200160405190810160405280929190818152602001828054610fd690612308565b80156110235780601f10610ff857610100808354040283529160200191611023565b820191906000526020600020905b81548152906001019060200180831161100657829003601f168201915b5050505050815260200160038201805461103c90612308565b80601f016020809104026020016040519081016040528092919081815260200182805461106890612308565b80156110b55780601f1061108a576101008083540402835291602001916110b5565b820191906000526020600020905b81548152906001019060200180831161109857829003601f168201915b50505050508152602001600482015481526020016005820180546110d890612308565b80601f016020809104026020016040519081016040528092919081815260200182805461110490612308565b80156111515780601f1061112657610100808354040283529160200191611151565b820191906000526020600020905b81548152906001019060200180831161113457829003601f168201915b50505050508152602001600682015481526020016007820160009054906101000a900460ff16600181111561118957611188612398565b5b600181111561119b5761119a612398565b5b81525050905089898080601f016020809104026020016040519081016040528093929190818152602001838380828437600081840152601f19601f82011690508083019250505050505050816020018190525087878080601f016020809104026020016040519081016040528093929190818152602001838380828437600081840152601f19601f8201169050808301925050505050505081604001819052508381608001818152505085858080601f016020809104026020016040519081016040528093929190818152602001838380828437600081840152601f19601f82011690508083019250505050505050816060018190525082828080601f016020809104026020016040519081016040528093929190818152602001838380828437600081840152601f19601f820116905080830192505050505050508160a00181905250428160c00181815250508060048c815481106112fe576112fd6123f6565b5b90600052602060002090600802016000820151816000015560208201518160010190805190602001906113329291906117b6565b50604082015181600201908051906020019061134f9291906117b6565b50606082015181600301908051906020019061136c9291906117b6565b506080820151816004015560a08201518160050190805190602001906113939291906117b6565b5060c0820151816006015560e08201518160070160006101000a81548160ff021916908360018111156113c9576113c8612398565b5b02179055509050507f4976a552ea48534e8ce2929e1b74c27b5c53e2c2a7e341f7554bf369ec88a7cd8b8b8b8b8b8b8b8a8a426040516114129a99989796959493929190611f2c565b60405180910390a15050505050505050505050565b60008054906101000a900473ffffffffffffffffffffffffffffffffffffffff1673ffffffffffffffffffffffffffffffffffffffff163373ffffffffffffffffffffffffffffffffffffffff16146114b5576040517f08c379a00000000000000000000000000000000000000000000000000000000081526004016114ac90611ed6565b60405180910390fd5b8060018190555050565b6114c761183c565b600360008373ffffffffffffffffffffffffffffffffffffffff1673ffffffffffffffffffffffffffffffffffffffff168152602001908152602001600020604051806040016040529081600082015481526020016001820160009054906101000a900460ff1660018111156115405761153f612398565b5b600181111561155257611551612398565b5b815250509050919050565b60008054906101000a900473ffffffffffffffffffffffffffffffffffffffff1673ffffffffffffffffffffffffffffffffffffffff163373ffffffffffffffffffffffffffffffffffffffff16146115eb576040517f08c379a00000000000000000000000000000000000000000000000000000000081526004016115e290611ed6565b60405180910390fd5b60008054906101000a900473ffffffffffffffffffffffffffffffffffffffff1673ffffffffffffffffffffffffffffffffffffffff166108fc479081150290604051600060405180830381858888f19350505050158015611651573d6000803e3d6000fd5b50565b60025481565b60008054906101000a900473ffffffffffffffffffffffffffffffffffffffff1681565b60008054906101000a900473ffffffffffffffffffffffffffffffffffffffff1673ffffffffffffffffffffffffffffffffffffffff163373ffffffffffffffffffffffffffffffffffffffff161461170c576040517f08c379a000000000000000000000000000000000000000000000000000000000815260040161170390611ed6565b60405180910390fd5b605a811115611747576040517f2977522e00000000000000000000000000000000000000000000000000000000815260040160405180910390fd5b8060028190555050565b60015481565b6000600360008373ffffffffffffffffffffffffffffffffffffffff1673ffffffffffffffffffffffffffffffffffffffff168152602001908152602001600020600001544210156117ac57600190506117b1565b600090505b919050565b8280546117c290612308565b90600052602060002090601f0160209004810192826117e4576000855561182b565b82601f106117fd57805160ff191683800117855561182b565b8280016001018555821561182b579182015b8281111561182a57825182559160200191906001019061180f565b5b5090506118389190611868565b5090565b6040518060400160405280600081526020016000600181111561186257611861612398565b5b81525090565b5b80821115611881576000816000905550600101611869565b5090565b600081359050611894816124a0565b92915050565b6000813590506118a9816124b7565b92915050565b6000813590506118be816124c7565b92915050565b60008083601f8401126118da576118d961242a565b5b8235905067ffffffffffffffff8111156118f7576118f6612425565b5b6020830191508360018202830111156119135761191261242f565b5b9250929050565b600081359050611929816124d7565b92915050565b60006020828403121561194557611944612439565b5b600061195384828501611885565b91505092915050565b60006020828403121561197257611971612439565b5b6000611980848285016118af565b91505092915050565b60008060008060008060008060008060c08b8d0312156119ac576119ab612439565b5b60008b013567ffffffffffffffff8111156119ca576119c9612434565b5b6119d68d828e016118c4565b9a509a505060208b013567ffffffffffffffff8111156119f9576119f8612434565b5b611a058d828e016118c4565b985098505060408b013567ffffffffffffffff811115611a2857611a27612434565b5b611a348d828e016118c4565b96509650506060611a478d828e0161191a565b94505060808b013567ffffffffffffffff811115611a6857611a67612434565b5b611a748d828e016118c4565b935093505060a0611a878d828e0161189a565b9150509295989b9194979a5092959850565b600060208284031215611aaf57611aae612439565b5b6000611abd8482850161191a565b91505092915050565b60008060008060008060008060008060c08b8d031215611ae957611ae8612439565b5b6000611af78d828e0161191a565b9a505060208b013567ffffffffffffffff811115611b1857611b17612434565b5b611b248d828e016118c4565b995099505060408b013567ffffffffffffffff811115611b4757611b46612434565b5b611b538d828e016118c4565b975097505060608b013567ffffffffffffffff811115611b7657611b75612434565b5b611b828d828e016118c4565b95509550506080611b958d828e0161191a565b93505060a08b013567ffffffffffffffff811115611bb657611bb5612434565b5b611bc28d828e016118c4565b92509250509295989b9194979a5092959850565b6000611be28383611d9b565b905092915050565b611bf381612234565b82525050565b6000611c04826120fd565b611c0e8185612120565b935083602082028501611c20856120ed565b8060005b85811015611c5c5784840389528151611c3d8582611bd6565b9450611c4883612113565b925060208a01995050600181019050611c24565b50829750879550505050505092915050565b611c7781612246565b82525050565b611c86816122a2565b82525050565b611c95816122a2565b82525050565b611ca4816122b4565b82525050565b6000611cb68385612142565b9350611cc38385846122c6565b611ccc8361243e565b840190509392505050565b6000611ce282612108565b611cec8185612131565b9350611cfc8185602086016122d5565b611d058161243e565b840191505092915050565b6000611d1b82612108565b611d258185612142565b9350611d358185602086016122d5565b611d3e8161243e565b840191505092915050565b6000611d56600f83612142565b9150611d618261244f565b602082019050919050565b604082016000820151611d826000850182611e60565b506020820151611d956020850182611c9b565b50505050565b600061010083016000830151611db46000860182611e60565b5060208301518482036020860152611dcc8282611cd7565b91505060408301518482036040860152611de68282611cd7565b91505060608301518482036060860152611e008282611cd7565b9150506080830151611e156080860182611e60565b5060a083015184820360a0860152611e2d8282611cd7565b91505060c0830151611e4260c0860182611e60565b5060e0830151611e5560e0860182611c7d565b508091505092915050565b611e6981612298565b82525050565b611e7881612298565b82525050565b6000602082019050611e936000830184611bea565b92915050565b60006020820190508181036000830152611eb38184611bf9565b905092915050565b6000602082019050611ed06000830184611c6e565b92915050565b60006020820190508181036000830152611eef81611d49565b9050919050565b6000604082019050611f0b6000830184611d6c565b92915050565b6000602082019050611f266000830184611e6f565b92915050565b600060c082019050611f41600083018d611e6f565b8181036020830152611f54818b8d611caa565b90508181036040830152611f6981898b611caa565b90508181036060830152611f7e818789611caa565b90508181036080830152611f93818587611caa565b9050611fa260a0830184611e6f565b9b9a5050505050505050505050565b600061010082019050611fc7600083018f611e6f565b8181036020830152611fda818d8f611caa565b90508181036040830152611fef818b8d611caa565b9050818103606083015261200481898b611caa565b90506120136080830188611e6f565b81810360a0830152612026818688611caa565b905061203560c0830185611e6f565b61204260e0830184611c8c565b9d9c50505050505050505050505050565b600061010082019050612069600083018b611e6f565b818103602083015261207b818a611d10565b9050818103604083015261208f8189611d10565b905081810360608301526120a38188611d10565b90506120b26080830187611e6f565b81810360a08301526120c48186611d10565b90506120d360c0830185611e6f565b6120e060e0830184611c8c565b9998505050505050505050565b6000819050602082019050919050565b600081519050919050565b600081519050919050565b6000602082019050919050565b600082825260208201905092915050565b600082825260208201905092915050565b600082825260208201905092915050565b600061215e82612298565b915061216983612298565b9250827fffffffffffffffffffffffffffffffffffffffffffffffffffffffffffffffff0382111561219e5761219d61233a565b5b828201905092915050565b60006121b482612298565b91506121bf83612298565b9250826121cf576121ce612369565b5b828204905092915050565b60006121e582612298565b91506121f083612298565b9250817fffffffffffffffffffffffffffffffffffffffffffffffffffffffffffffffff04831182151516156122295761222861233a565b5b828202905092915050565b600061223f82612278565b9050919050565b60008115159050919050565b600081905061226082612478565b919050565b60008190506122738261248c565b919050565b600073ffffffffffffffffffffffffffffffffffffffff82169050919050565b6000819050919050565b60006122ad82612252565b9050919050565b60006122bf82612265565b9050919050565b82818337600083830152505050565b60005b838110156122f35780820151818401526020810190506122d8565b83811115612302576000848401525b50505050565b6000600282049050600182168061232057607f821691505b60208210811415612334576123336123c7565b5b50919050565b7f4e487b7100000000000000000000000000000000000000000000000000000000600052601160045260246000fd5b7f4e487b7100000000000000000000000000000000000000000000000000000000600052601260045260246000fd5b7f4e487b7100000000000000000000000000000000000000000000000000000000600052602160045260246000fd5b7f4e487b7100000000000000000000000000000000000000000000000000000000600052602260045260246000fd5b7f4e487b7100000000000000000000000000000000000000000000000000000000600052603260045260246000fd5b600080fd5b600080fd5b600080fd5b600080fd5b600080fd5b6000601f19601f8301169050919050565b7f6f6e6c79206f776e65722063616c6c0000000000000000000000000000000000600082015250565b6002811061248957612488612398565b5b50565b6002811061249d5761249c612398565b5b50565b6124a981612234565b81146124b457600080fd5b50565b600281106124c457600080fd5b50565b600281106124d457600080fd5b50565b6124e081612298565b81146124eb57600080fd5b5056fea2646970667358221220ddbc799ff538693b91d6c9152d28bbbdfbfb5bde77d453087f220b05098ac43764736f6c63430008070033",
  "linkReferences": {},
  "deployedLinkReferences": {}
}